{
  "contractName": "MyContract",
  "abi": [
    {
      "inputs": [],
      "payable": false,
      "stateMutability": "nonpayable",
      "type": "constructor"
    },
    {
      "payable": true,
      "stateMutability": "payable",
      "type": "fallback"
    },
    {
      "constant": true,
      "inputs": [],
      "name": "get",
      "outputs": [
        {
          "name": "",
          "type": "string"
        }
      ],
      "payable": false,
      "stateMutability": "view",
      "type": "function"
    },
    {
      "constant": false,
      "inputs": [],
      "name": "withdrawal",
      "outputs": [],
      "payable": false,
      "stateMutability": "nonpayable",
      "type": "function"
    }
  ],
  "bytecode": "0x6080604052670de0b6b3a764000060015534801561001c57600080fd5b50600080546001600160a01b0319163317905561021b8061003e6000396000f3fe6080604052600436106100295760003560e01c80636d4ce63c1461002b578063d4e93292146100b5575b005b34801561003757600080fd5b506100406100ca565b6040805160208082528351818301528351919283929083019185019080838360005b8381101561007a578181015183820152602001610062565b50505050905090810190601f1680156100a75780820380516001836020036101000a031916815260200191505b509250505060405180910390f35b3480156100c157600080fd5b506100296100db565b60606100d63031610129565b905090565b600154303110156100eb57600080fd5b600080546040516001600160a01b0390911691303180156108fc02929091818181858888f19350505050158015610126573d6000803e3d6000fd5b50565b60608161015157506040805180820190915260018152600160fc1b60030260208201526101ea565b8160005b811561016957600101600a82049150610155565b6060816040519080825280601f01601f191660200182016040528015610196576020820181803883390190505b50905060001982015b85156101e457600a860660300160f81b828280600190039350815181106101c257fe5b60200101906001600160f81b031916908160001a905350600a8604955061019f565b50925050505b91905056fea165627a7a72305820237118d0fa09890ec615fc0eeb816e956365ad167bd66691309cea085333e02a0029",
  "source": "pragma solidity ^0.5.8;\r\n\r\ncontract MyContract {\r\n\r\n\taddress payable owner;\r\n\tuint threshold = 1 ether;\r\n\r\n    constructor () public {\r\n        owner = msg.sender;\r\n    }\r\n    \r\n    function() external payable {\r\n    }\r\n\r\n    function get() public view returns(string memory) {\r\n        return uint2str(address(this).balance);\r\n    }\r\n\r\n    function withdrawal () public {\r\n        require(address(this).balance >= threshold);\r\n    \towner.transfer(address(this).balance);\r\n    }\r\n\r\n    function uint2str(uint _i) internal pure returns (string memory _uintAsString) {\r\n    if (_i == 0) {\r\n        return \"0\";\r\n    }\r\n    uint j = _i;\r\n    uint len;\r\n    while (j != 0) {\r\n        len++;\r\n        j /= 10;\r\n    }\r\n    bytes memory bstr = new bytes(len);\r\n    uint k = len - 1;\r\n    while (_i != 0) {\r\n        bstr[k--] = byte(uint8(48 + _i % 10));\r\n        _i /= 10;\r\n    }\r\n    return string(bstr);\r\n    }\r\n}",
  "sourcePath": "C:/Users/pavel/task4/contracts/MyContract.sol",
  "compiler": {
    "name": "solc",
    "version": "0.5.8+commit.23d335f2.Emscripten.clang"
  },
  "schemaVersion": "3.0.12",
  "updatedAt": "2019-08-17T22:51:16.797Z",
  "devdoc": {
    "methods": {}
  },
  "userdoc": {
    "methods": {}
  }
}